S015000053414D443130575332383132622E73726563B0
S113000008050020F50E0000F10E0000F10E0000BE
S113001000000000000000000000000000000000DC
S1130020000000000000000000000000F10E0000CD
S11300300000000000000000F10E0000F10E0000BE
S1130040F10E0000F10E0000F10E0000F10E0000B0
S1130050F10E0000F10E0000F10E0000000000009F
S1130060F10E0000F5020000050300001503000076
S1130070F10E0000D10E0000E10E0000F10E0000B0
S1130080F10E0000F10E0000F10E000010B5064C58
S11300902378002B07D1054B002B02D0044800E045
S11300A000BF0123237010BD700000200000000079
S11300B0DC180000084B10B5002B03D00749084892
S11300C000E000BF07480368002B00D110BD064BB9
S11300D0002BFBD09847F9E70000000074000020D3
S11300E0DC180000DC1800000000000070B50020DF
S11300F0084B98470500084CFA218900A047074B94
S1130100186007492800A047064B18600522064BD3
S11301101A6070BD050C00004913000004000020A3
S113012040420F000000002010E000E030B5084B12
S11301301C68084A00258021490206E0002C04D0EE
S11301405460956013680B42FCD00138F6D230BD80
S11301500000002010E000E030B5084B1C68084A9D
S113016000258021490206E0002C04D054609560EB
S113017013680B42FCD00138F6D230BD04000020D5
S113018010E000E010B5490840230024814201D268
S11301900AE01C00091A631C9BB28842F9D9402367
S11301A0FF2C01D814800023180010BD10B582B0B4
S11301B004000E4B1B78002B01D000290DD001A99F
S11301C00C700D200A4B98470D200A4B9847074B9B
S11301D05C7001221A70002006E0044B5B788342B5
S11301E001D01D2000E0002002B010BD8C000020D2
S11301F01D0D0000910C0000214B984216D0214B9C
S1130200984224D0204B984232D1012906D00029AB
S113021030D0022906D0032906D001E01B482EE085
S113022000202CE01A482AE01A4828E0012906D0C8
S1130230002921D0022906D0032906D001E016485E
S11302401DE000201BE0154819E0154817E00129BE
S113025006D0002912D0022906D0032906D001E0D5
S113026010480CE000200AE00F4808E00F4806E0C0
S1130270002004E00E4802E00E4800E00E487047FB
S1130280000C004200100042000800420300050078
S113029003000600030007000200170003001E000D
S11302A003001F00030017000300100003001900DF
S11302B003000400020016000300160030B585B0E8
S11302C001AA0B4B32CB32C20300019A82420AD0FC
S11302D0029A824205D00020039A9A4205D1023044
S11302E002E0012000E00020C0B205B030BDC046ED
S11302F04418000010B5024B1B680020984710BD3D
S11303009000002010B5024B5B680120984710BD97
S11303109000002010B5024B9B680220984710BD46
S113032090000020F0B557464E464546E0B488B0EC
S113033080460E001400030019600B689B0700D46C
S1130340A6E0936A0393D36A0493136B0593536BE8
S1130350069300271F239946F9B2BB0003AA9858B5
S1130360002802D13000AC4B9847431C27D002042C
S1130370130C9C46000CC1B20025030603D44B09A0
S1130380DB01A64A9D184B460B40E8184030007824
S1130390824680205246D2070AD55B08EB183033D8
S11303A01878C0B2CB0701D5000901E00F2318402B
S11303B0844504D00023424613601C2026E1013703
S11303C0042FC9D10D20964B984723780027012B81
S11303D012D102AA0100A069924B9847030017208A
S11303E0002B00D012E1337BDBB202AA1278053075
S11303F09A4200D00AE10C372578002D14D13268D6
S1130400E37F1B04A17F0B431C20934200D0FDE03B
S1130410A169A38B2022A25C002A01D040221343AD
S113042008220A43174300E000236268A1680A43D4
S1130430E1680A433A43217C0B43617C002901D0E3
S113044080210A43A17C002902D0802189020B4328
S1130450E17C002902D0802189000B43217D002901
S113046002D0802189010B43306802210A43824271
S113047009D172689A4206D143465D71237C424693
S113048093710020C2E00023424613601C20BDE0AB
S11304900B680520DB0700D5B8E00800624B9847DD
S11304A062490A6A851C0123AB4013430B6207A906
S11304B02427E35D0B700E30C5B228005C4B9847CF
S11304C028005C4B9847E05D00215B4B98472378FC
S11304D0012B03D132680B33134333602378002B91
S11304E003D1326808331343336043461E6802ABBA
S11304F080221A7000225A7001219970DA702378D0
S1130500002B01D102AB9A70A36A0393E36A0493AC
S1130510236B0593636B0693002702ADF9B2BB000E
S113052003AA9858002802D130003B4B9847431C3B
S113053005D02870000CC0B22900404B9847013701
S1130540042FEBD1237842465371237C9371A37C0F
S1130550D371237D137200226B46DA802378012B3A
S113056015D143461868304B98470E30C0B22C4B17
S1130570984701006B469A1DA0692A4B98470300CF
S11305801720002B42D16B4606331B783373237834
S1130590002B0FD1A769A38B706AE17F0904A57FA3
S11305A02943014371622022A25C002A04D0402125
S11305B00B4301E0002300276268A1680A43E16855
S11305C00A433A43217C0B43617C002903D11C4933
S11305D08978890701D580210A43A17C002902D0AA
S11305E0802189020B43E17C002902D0802189000B
S11305F00B43217D002902D0802189010B433168FE
S11306000A433260726813437360002008B01CBC54
S113061090469946A246F0BDF9010000004400410D
S1130620390D000085010000BD02000000040040F7
S11306301D0D0000910C0000AD010000150E00001E
S1130640002000410C4B1B68002B10D1EFF31083EA
S1130650002B09D172B6BFF35F8F0022074B1A70CB
S11306600132074B1A7002E00022054B1A70024A4D
S113067013680133136070479C00002008000020B9
S1130680A0000020084B1A68013A1A601B68002B6E
S113069009D1064B1B78002B05D00122044B1A709C
S11306A0BFF35F8F62B670479C000020A00000205B
S11306B008000020F0B583B001AC01256570002767
S11306C0A770257021000920064EB04780229200B1
S11306D0054B5A612770657021001920B04703B09B
S11306E0F0BDC046ED0600000044004100B583B0F3
S11306F001AB80221A700A785A704A789A708A7804
S1130700DA701900014B984703B000BD150E0000C4
S113071010B5082803D880001B4B1B589F460020A7
S113072030E01A4B18692DE0194B1B6A9B059B0F8F
S11307301848D84026E0154B586923E0134B1B6832
S1130740022018401ED012491022CB681A42FCD055
S11307500E4B1B685B0714D500200F4B98470B4BBF
S11307609B681B041B0C58430CE05023084AD35CC1
S113077000205B0706D5054BD86803E08020000203
S113078000E0064810BDC04650180000A400002038
S11307900008004000127A00390D0000006CDC02F1
S11307A070B50C4C236A01788578427801200240A8
S11307B092014026B343134302002A40D2017F3002
S11307C08343134303220A40120203490B40134399
S11307D0236270BD00080040FFFCFFFFF0B55746E0
S11307E04E464546E0B41C4EB3699C4641780578B4
S11307F00779C378994644798378012003409B00A4
S11308009A4604229046624643469A43130052464F
S11308101A4313000140C900082293430B434A467C
S11308200240920140218B4313430740FF01802281
S113083093433B43793A15402D02084F3B402B43E9
S113084004402003064C1C400443B4611CBC904685
S11308509946A246F0BDC04600080040FFF8FFFFDD
S1130860FFEFFFFF10B5037A9B061A0C43899B0523
S11308709B0D1343194C63608179C37919434388F1
S1130880828813430B434278D201134323600378D5
S1130890042B0FD1037B9B06028A13431900C389DF
S11308A01B040F4A13400B43A360216804230B432A
S11308B0236011E0202B0FD1037B9B06028A134394
S11308C01900C3891B04064A13400B43034A93606F
S11308D0136804490B43136010BDC046A4000020F4
S11308E00000FF0324040000082803D88000254BDF
S11308F01B589F46172044E0234A116A02230B43E6
S1130900136200203DE0204A916902230B43936166
S1130910002036E01C4A118A02230B431382002074
S11309202FE0194A918A02230B439382002028E086
S113093016490B68022213430B60134B9A84190067
S11309400E32CB681A42FCD0104A91680E4BD96221
S113095052689A6200229A8419001032CB681A42B3
S1130960FCD00A4B1B689BB2074A9384002008E022
S113097005494422885C022303438B54002000E091
S1130980002070477418000000080040A4000020F4
S1130990F0B58DB0C222D200444B9A6044494B68F2
S11309A01E2293431C3A13434B6001AB1A7000247C
S11309B0404DE0B201A9A8470134182CF9D13E4DAD
S11309C02B68DA0439498869520E12043B4B034000
S11309D013438B610AA80123437083700024C470FD
S11309E00371063303704471354B98470420354B2B
S11309F0984705AB00225C809C809A71DA713F2194
S1130A0059813B3919705A702B689B0E3F2B00D1CA
S1130A10203B05A80372B723DB000382072303737B
S1130A203833C381284B984704A800254570012614
S1130A3086700570254B98470620224FB847244BF3
S1130A40984701AC02966570257265720423237081
S1130A50210001201F4B984701201F4B9847267007
S1130A6021000020134B984700201C4B9847072077
S1130A70B8470E49D022CB681340D02BFBD1184A7B
S1130A800023137253729372D37201A901224A6034
S1130A904B700B724B7207330B7000200D4B984751
S1130AA000200D4B98470DB0F0BDC0460008004033
S1130AB0004000411D0D000024608000FFFF80FF06
S1130AC0DD070000E908000065080000A107000038
S1130AD0E50A0000090B0000C10B0000910C0000A6
S1130AE000040040064A916908230B4393610122E4
S1130AF0044B1A7019000B781342FCD17047C0469E
S1130B0000040040000C004070B5060005000C789D
S1130B10240204434B78002B02D08023DB021C43C5
S1130B204B7A002B02D080231B031C434868012806
S1130B3018D9431E184210D1022806D902230022D4
S1130B4001325B009842FBD800E0002212023243DB
S1130B50150080235B031C4304E005023543802316
S1130B609B021C430B7A002B02D080239B031C4363
S1130B700F4A53785BB2002BFBDB0E4B98470E4BAE
S1130B801E700B4A53785BB2002BFBDB084B9D6055
S1130B901A0053785BB2002BFBDB054A51688023B3
S1130BA05B020B401C435460044B984770BDC04625
S1130BB0000C004045060000080C004085060000BB
S1130BC010B504000B4A53785BB2002BFBDB0A4BD5
S1130BD098470A4B1C70074A53785BB2002BFBDB27
S1130BE0044A5368802149020B435360044B9847DD
S1130BF010BDC046000C004045060000040C004037
S1130C008506000070B504001A4A53785BB2002BC5
S1130C10FBDB194B9847194B1C70164A53785BB28F
S1130C20002BFBDB134E7068C004C00E144B9847B6
S1130C300500124B1C707668F602F60F114B1C70FF
S1130C400C4A53785BB2002BFBDB0A4B9C682402F2
S1130C50240C0D4B9847002E07D1012C07D92100F5
S1130C6028000A4B9847050001E00134E5402800BC
S1130C7070BDC046000C004045060000040C004056
S1130C8011070000080C004085060000491300000D
S1130C9010B50400064B9847064B1C70064A518851
S1130CA08023DB010B435380044B984710BDC0469F
S1130CB045060000020C0040000C004085060000C0
S1130CC010B504000F4B98470F4B1C700F4B5A88FC
S1130CD01205100F59880E4A0A405A8059880D4A45
S1130CE00A405A8019008022D2014B881342FCD159
S1130CF006494C880202064B234013434B80064BA3
S1130D00984710BD45060000020C0040000C00404E
S1130D10FFF0FFFFFFBFFFFF8506000010B50C7852
S1130D2024020443024B9847A4B2024B5C8010BDDA
S1130D30C10C0000000C004010B50400064B98479D
S1130D40064B1C70064B5C882405240F054B984702
S1130D502000054B984710BD45060000020C0040DA
S1130D60000C004085060000050C000030B5D37867
S1130D70002B1ED11378802B04D01B068024640220
S1130D80234300E0002354780225AC430AD194782D
S1130D90002C03D18024A402234302E0C024E402F3
S1130DA0234341605478013C012C12D8184C234051
S1130DB00FE041600B041B0CA024E4052343836271
S1130DC00B0CD024240623438362D378002B18D041
S1130DD01CE00C04240CA025ED052C431C43846268
S1130DE00C0CD0252D062C431C438462D478002C93
S1130DF00CD15B0305D59378012B01D1816100E00F
S1130E0041615378013B012B00D8816030BDC0465D
S1130E10FFFFFBFF10B503000A00C10900200029F1
S1130E2004D15809C00105498C4660441F210B4078
S1130E301E399940024B984710BDC04600440041FA
S1130E406D0D00007047C04610B5054B9847054B23
S1130E509847054B9847054B9847054B984710BD55
S1130E6091090000B5060000450E0000450E000083
S1130E70450E000070B58000144BC5582B689C7B50
S1130E802B7E1C406B7E1C40E30705D52800AB6815
S1130E90984701232A689373A30705D52800EB68B4
S1130EA0984702232A689373E30605D528002B6923
S1130EB0984710232A689373A30605D528006B6905
S1130EC098472B6820229A7370BDC046EC0000201E
S1130ED010B50020014B984710BDC046750E0000A8
S1130EE010B50120014B984710BDC046750E000097
S1130EF0FEE7C04610B52B4B2B4A9A4203D02B4B2E
S1130F00284A9A4204D32A4B2A4A9A4210D31EE012
S1130F10294A264B03339B1A9B0801339B0000226A
S1130F20204821498C58845004329A42FAD1EAE785
S1130F30224A1F4B03339B1A9B0801339B00002258
S1130F401C4800211418216004329A42FAD11C4A28
S1130F50FF211C4B8B439360FD3990235B001A4A9D
S1130F60D1501A4B9A7B2E318A43110020220A4316
S1130F709A739A7B0C218A43110008220A439A73BC
S1130F809A7B03218A43110002220A439A73104A6E
S1130F90516880230B4353600E4B98470E4B984780
S1130FA0FEE7C04600000020DC18000070000020AE
S1130FB008010020700000200400002074000020BC
S1130FC000ED00E000000000007000410048004116
S1130FD0004000418D160000ED1200000300064A97
S1130FE01268002A02D10549034A1160024A1068B6
S1130FF0C31813607047C046BC00002008050020D9
S11310000A4B1B6801211A7E0A42FCD01A7ED207C1
S113101001D5020A9A6201211A7E0A42FCD01A7E84
S1131020D20702D5C005C00D98627047F4000020B5
S113103070B50400054E03115B00985B044DA8478E
S11310400F231C406400A05BA84770BD98180000E3
S113105001100000F0B5474680B400200B4CA047B7
S11310600020A0470A4C24239846A044094D277821
S1131070A6786078A8473800A8473000A84703340A
S11310804445F4D104BC9046F0BDC04601100000B4
S1131090C00000203110000010B5054B1C002434A2
S11310A0187059709A700333A342F9D110BDC04629
S11310B0C000002030B591B0274C112323700023C9
S11310C06370A37001A901224A708B700A70112009
S11310D0224B98472378DA090021002A04D15909C0
S11310E0C9011F4A944661441F2213401E3A10004E
S11310F09840886102AC22700023039323746374C4
S1131100A274E27423752332A354183A002108A868
S1131110144B984780235B05A36080239B03E36003
S1131120114BA362114BE362114B236301235B4216
S11311306363104BA361104D220010492800104B2B
S113114098472A68D369002BFCD1116802330B43FA
S1131150136011B030BDC04600010020ED06000050
S113116000440041D91600000200160002001700D6
S113117002001800A0252600F4000020000C004204
S113118025030000F0B5474680B482B01C4D4300EF
S11311901B185A5D1404EB185A78120222439B78E8
S11311A013431C0CE2B294461A0A90466D46EA7147
S11311B0EF79DEB2002562460A2A03D94C43241291
S11311C0141BE5B200240A2F06D9FF3442462240FC
S11311D04A431212BA1AD4B200270A2E05D9FF22A2
S11311E013404B431B12F31ADFB2054A430018188D
S11311F0855410184470877002B004BC9046F0BD4A
S1131200C0000020F0B55F4656464D464446F0B453
S113121087B08346029192461C00049310AB1A785F
S1131220019211AB1E78002200210020274B984721
S1131230A500631B264DED1863001900A446614404
S1131240059100230393234F234B9946234B984640
S113125033E0002E04D0C8470A21C047052902DD27
S113126001992000B84701340C2CF2D1049B002BC7
S113127011DD039A059BEB18594650460B2A04D8F6
S113128019706C46247A5C709870013A033BAB4247
S1131290F4D18B468246124B9847129B002B03D005
S11312A01800104B984702E001200F4B9847039B0E
S11312B0013303930335182B01D00024C9E707B089
S11312C03CBC90469946A246AB46F0BD991000003E
S11312D0C000002085110000E91600002916000056
S11312E055100000590100002D01000070B584B0B4
S11312F00E4B98470E4B98470E4B984700220021FF
S113130000200D4B98470D4B984701240C4E0D4D72
S11313103C23029301948C3300932300FF22FF218A
S1131320FF20B0473220A847F2E7C046490E00002C
S1131330ED000000B51000009910000055100000E9
S11313400512000059010000002243088B4274D3A7
S113135003098B425FD3030A8B4244D3030B8B42B2
S113136028D3030C8B420DD3FF22090212BA030CBB
S11313708B4202D31212090265D0030B8B4219D39C
S113138000E0090AC30B8B4201D3CB03C01A5241BC
S1131390830B8B4201D38B03C01A5241430B8B4204
S11313A001D34B03C01A5241030B8B4201D30B03ED
S11313B0C01A5241C30A8B4201D3CB02C01A524114
S11313C0830A8B4201D38B02C01A5241430A8B42D7
S11313D001D34B02C01A5241030A8B4201D30B02C0
S11313E0C01A5241CDD2C3098B4201D3CB01C01ADA
S11313F0524183098B4201D38B01C01A52414309E4
S11314008B4201D34B01C01A524103098B4201D3D1
S11314100B01C01A5241C3088B4201D3CB00C01A3E
S1131420524183088B4201D38B00C01A52414308B6
S11314308B4201D34B00C01A5241411A00D20146DB
S1131440524110467047FFE701B5002000F0F0F864
S113145002BDC0460029F7D076E7704703460B4328
S11314607FD4002243088B4274D303098B425FD399
S1131470030A8B4244D3030B8B4228D3030C8B42C5
S11314800DD3FF22090212BA030C8B4202D31212AB
S1131490090265D0030B8B4219D300E0090AC30B80
S11314A08B4201D3CB03C01A5241830B8B4201D32D
S11314B08B03C01A5241430B8B4201D34B03C01A16
S11314C05241030B8B4201D30B03C01A5241C30A8E
S11314D08B4201D3CB02C01A5241830A8B4201D3FF
S11314E08B02C01A5241430A8B4201D34B02C01AE9
S11314F05241030A8B4201D30B02C01A5241CDD28E
S1131500C3098B4201D3CB01C01A524183098B42D8
S113151001D38B01C01A524143098B4201D34B01C1
S1131520C01A524103098B4201D30B01C01A524124
S1131530C3088B4201D3CB00C01A524183088B42AB
S113154001D38B00C01A524143088B4201D34B0094
S1131550C01A5241411A00D2014652411046704706
S11315605DE0CA0F00D04942031000D3404253400B
S113157000229C4603098B422DD3030A8B4212D3CB
S1131580FC22890112BA030A8B420CD389019211FD
S11315908B4208D3890192118B4204D389013AD03A
S11315A0921100E08909C3098B4201D3CB01C01A0F
S11315B0524183098B4201D38B01C01A5241430922
S11315C08B4201D34B01C01A524103098B4201D310
S11315D00B01C01A5241C3088B4201D3CB00C01A7D
S11315E0524183088B4201D38B00C01A5241D9D295
S11315F043088B4201D34B00C01A5241411A00D216
S11316000146634652415B10104601D34042002B11
S113161000D54942704763465B1000D3404201B590
S1131620002000F005F802BD0029F8D016E7704745
S11316307047C046F0B54F464646C0B41604360C53
S11316409946330005042C0C070C150C63437E43A8
S11316506F4365431C0CAD1964199C46A64203D91B
S113166080235B02984647446346250CEF191D040A
S11316704B464A4343432D0C240464199918C91951
S113168020000CBC90469946F0BDC0460E4B70B588
S113169000251E000D4CE41AA410A54204D0AB0092
S11316A0F35898470135F8E700F008F9084B00258E
S11316B01E00084CE41AA410A54204D0AB00F35851
S11316C098470135F8E770BDC8180000C818000035
S11316D0C8180000CC18000003008218934202D0FE
S11316E019700133FAE77047154B10B51C68A36BEA
S11316F0002B15D1182000F033F8124BA06303809F
S1131700114B01224380114B8380114BC380114B39
S113171003810523438106338381002302614361EE
S1131720A46B0D4A206961690C4BFFF783FF01220A
S1131730002380185941206161614800400810BDB0
S11317406C0000200E330000CDABFFFF341200000C
S11317506DE6FFFFECDEFFFF2D7F954C2DF4515815
S113176010B5034B0100186800F004F810BDC04622
S11317706C000020032370B5CD1C9D430835060082
S11317800C2D01D20C2505E0002D03DA0C230020DA
S1131790336040E0A942F9D81F4B1C681A002100AD
S11317A0002913D00B685B1B0DD40B2B02D90B60E3
S11317B0CC181EE08C4202D1636813601AE04B68B7
S11317C063600C0016E00C004968E9E7134C2368D9
S11317D0002B03D1300000F023F8206029003000F2
S11317E000F01EF8431CD1D00323C41C9C43A04228
S11317F00AD12560200007220B30231D9043C31A11
S113180009D05A42E25006E0211A300000F008F8EC
S1131810431CEED1BAE770BDE8000020E4000020CC
S1131820002370B5064C050008002360FFF7D6FBC3
S1131830431C03D12368002B00D02B6070BDC0462D
S11318400401002000080042000C00420010004285
S1131850220700001E0700001E0700007C0700008E
S11318607C07000036070000280700003C07000042
S11318706A07000014090000F4080000F4080000DE
S1131880800900000609000022090000F808000091
S113189030090000700900002409260934093609BA
S11318A0A409A609B409B609240D260D340D360D74
S11318B0A40DA60DB40DB60D43000000F8B5C04646
S11318C0F8BC08BC9E467047B5000000F8B5C04699
S10F18D0F8BC08BC9E4670478D00000068
S11318DC08000000401F0000010000000000000090
S11318EC00000000000000000000000000000000E8
S11318FC000000000000000000000000B818000008
S113190C00000000000000000000000000000000C7
S113191C00000000000000000000000000000000B7
S113192C00000000000000000000000000000000A7
S113193C0000000000000000000000000C0000206B
S9030EF5F9
