S015000053414D443130575332383132622E73726563B0
S113000070040020C90E0000C50E0000C50E0000DB
S113001000000000000000000000000000000000DC
S1130020000000000000000000000000C50E0000F9
S11300300000000000000000C50E0000C50E000016
S1130040C50E0000C50E0000C50E0000C50E000060
S1130050C50E0000C50E0000C50E00000000000023
S1130060C50E0000C9020000D9020000E902000028
S1130070C50E0000A50E0000B50E0000C50E000060
S1130080C50E0000C50E0000C50E000010B5064CDC
S11300902378002B07D1054B002B02D0044800E045
S11300A000BF0123237010BD0C00002000000000DD
S11300B09C130000084B10B5002B03D007490848D7
S11300C000E000BF07480368002B00D110BD064BB9
S11300D0002BFBD09847F9E7000000001000002037
S11300E09C1300009C1300000000000070B5002069
S11300F0084B98470500084CFA218900A047074B94
S1130100186007492800A047064B18600522064BD3
S11301101A6070BDD90B0000951100000400002086
S113012040420F000000002010E000E030B5084B12
S11301301C68084A00258021490206E0002C04D0EE
S11301405460956013680B42FCD00138F6D230BD80
S11301500400002010E000E010B54908402300240A
S1130160814201D20AE01C00091A631C9BB2884236
S1130170F9D94023FF2C01D814800023180010BDA6
S113018010B582B004000E4B1B78002B01D000295F
S11301900DD001A90C700D200A4B98470D200A4B75
S11301A09847074B5C7001221A70002006E0044B4C
S11301B05B78834201D01D2000E0002002B010BD16
S11301C028000020F10C0000650C0000214B98422F
S11301D016D0214B984224D0204B984232D1012989
S11301E006D0002930D0022906D0032906D001E028
S11301F01B482EE000202CE01A482AE01A4828E088
S1130200012906D0002921D0022906D0032906D0CD
S113021001E016481DE000201BE0154819E01548D0
S113022017E0012906D0002912D0022906D003299B
S113023006D001E010480CE000200AE00F4808E076
S11302400F4806E0002004E00E4802E00E4800E0FB
S11302500E487047000C00420010004200080042A3
S11302600300050003000600030007000200170056
S113027003001E0003001F0003001700030010000A
S11302800300190003000400020016000300160016
S113029030B585B001AA0B4B32CB32C20300019AB0
S11302A082420AD0029A824205D00020039A9A42DE
S11302B005D1023002E0012000E00020C0B205B008
S11302C030BDC0460813000010B5024B1B68002067
S11302D0984710BD2C00002010B5024B5B6801202C
S11302E0984710BD2C00002010B5024B9B680220DB
S11302F0984710BD2C000020F0B557464E464546A1
S1130300E0B488B080460E001400030019600B6846
S11303109B0700D4A6E0936A0393D36A0493136BF8
S11303200593536B069300271F239946F9B2BB002C
S113033003AA9858002802D13000AC4B9847431CBC
S113034027D00204130C9C46000CC1B200250306FE
S113035003D44B09DB01A64A9D184B460B40E81811
S113036040300078824680205246D2070AD55B0886
S1130370EB1830331878C0B2CB0701D5000901E07F
S11303800F231840844504D00023424613601C20E8
S113039026E10137042FC9D10D20964B98472378C5
S11303A00027012B12D102AA0100A069924B9847A1
S11303B003001720002B00D012E1337BDBB202AA2A
S11303C0127805309A4200D00AE10C372578002DC6
S11303D014D13268E37F1B04A17F0B431C2093429A
S11303E000D0FDE0A169A38B2022A25C002A01D0E9
S11303F04022134308220A43174300E000236268A3
S1130400A1680A43E1680A433A43217C0B43617CB7
S1130410002901D080210A43A17C002902D0802137
S113042089020B43E17C002902D0802189000B431F
S1130430217D002902D0802189010B4330680221EB
S11304400A43824209D172689A4206D143465D71D9
S1130450237C424693710020C2E00023424613608D
S11304601C20BDE00B680520DB0700D5B8E00800C0
S1130470624B984762490A6A851C0123AB401343C7
S11304800B6207A92427E35D0B700E30C5B2280068
S11304905C4B984728005C4B9847E05D00215B4B20
S11304A098472378012B03D132680B33134333600D
S11304B02378002B03D13268083313433360434657
S11304C01E6802AB80221A7000225A7001219970B2
S11304D0DA702378002B01D102AB9A70A36A0393DC
S11304E0E36A0493236B0593636B0693002702ADC1
S11304F0F9B2BB0003AA9858002802D130003B4B44
S11305009847431C05D02870000CC0B22900404B0A
S113051098470137042FEBD1237842465371237C4B
S11305209371A37CD371237D137200226B46DA800E
S11305302378012B15D143461868304B98470E3069
S1130540C0B22C4B984701006B469A1DA0692A4BF8
S1130550984703001720002B42D16B4606331B78C3
S113056033732378002B0FD1A769A38B706AE17FC3
S11305700904A57F2943014371622022A25C002A59
S113058004D040210B4301E0002300276268A168E6
S11305900A43E1680A433A43217C0B43617C002906
S11305A003D11C498978890701D580210A43A17C9C
S11305B0002902D0802189020B43E17C002902D06A
S11305C0802189000B43217D002902D080218901EB
S11305D00B4331680A43326072681343736000202E
S11305E008B01CBC90469946A246F0BDCD0100005F
S11305F0004400410D0D000059010000910200006B
S113060000040040F10C0000650C000081010000B2
S1130610E90D0000002000410C4B1B68002B10D199
S1130620EFF31083002B09D172B6BFF35F8F002262
S1130630074B1A700132074B1A7002E00022054B77
S11306401A70024A1368013313607047380000209F
S1130650080000203C000020084B1A68013A1A6088
S11306601B68002B09D1064B1B78002B05D00122F7
S1130670044B1A70BFF35F8F62B6704738000020D6
S11306803C00002008000020F0B583B001AC012537
S113069065700027A770257021000920064EB04719
S11306A080229200054B5A61277065702100192041
S11306B0B04703B0F0BDC046C1060000004400418D
S11306C000B583B001AB80221A700A785A704A7858
S11306D09A708A78DA701900014B984703B000BD0C
S11306E0E90D000010B5082803D880001B4B1B58E7
S11306F09F46002030E01A4B18692DE0194B1B6A05
S11307009B059B0F1848D84026E0154B586923E0F9
S1130710134B1B68022018401ED012491022CB68CC
S11307201A42FCD00E4B1B685B0714D500200F4BFC
S113073098470B4B9B681B041B0C58430CE050233D
S1130740084AD35C00205B0706D5054BD86803E054
S11307508020000200E0064810BDC04614130000CB
S1130760400000200008004000127A000D0D000037
S1130770006CDC0270B50C4C236A017885784278F1
S11307800120024092014026B343134302002A4051
S1130790D2017F308343134303220A4012020349E8
S11307A00B401343236270BD00080040FFFCFFFFB1
S11307B0F0B557464E464546E0B41C4EB3699C46D8
S11307C0417805780779C37899464479837801207C
S11307D003409B009A4604229046624643469A434D
S11307E0130052461A4313000140C90008229343E0
S11307F00B434A460240920140218B431343074076
S1130800FF01802293433B43793A15402D02084F60
S11308103B402B4304402003064C1C400443B4617A
S11308201CBC90469946A246F0BDC0460008004054
S1130830FFF8FFFFFFEFFFFF10B5037A9B061A0CCA
S113084043899B059B0D1343194C63608179C379DC
S113085019434388828813430B434278D2011343DC
S113086023600378042B0FD1037B9B06028A134376
S11308701900C3891B040F4A13400B43A36021686A
S113088004230B43236011E0202B0FD1037B9B0631
S1130890028A13431900C3891B04064A13400B43FD
S11308A0034A9360136804490B43136010BDC046A8
S11308B0400000200000FF0324040000082803D89F
S11308C08000254B1B589F46172044E0234A116A99
S11308D002230B43136200203DE0204A9169022366
S11308E00B439361002036E01C4A118A02230B4318
S11308F0138200202FE0194A918A02230B4393822A
S1130900002028E016490B68022213430B60134BA6
S11309109A8419000E32CB681A42FCD0104A9168AE
S11309200E4BD96252689A6200229A8419001032DE
S1130930CB681A42FCD00A4B1B689BB2074A9384CB
S1130940002008E005494422885C022303438B54B9
S1130950002000E000207047381300000008004029
S113096040000020F0B58DB0C222D200444B9A6002
S113097044494B681E2293431C3A13434B6001AB1A
S11309801A700024404DE0B201A9A8470134182C84
S1130990F9D13E4D2B68DA0439498869520E1204A4
S11309A03B4B034013438B610AA8012343708370BC
S11309B00024C4700371063303704471354B9847A7
S11309C00420354B984705AB00225C809C809A71CB
S11309D0DA713F2159813B3919705A702B689B0E8B
S11309E03F2B00D1203B05A80372B723DB00038211
S11309F0072303733833C381284B984704A8002581
S1130A004570012686700570254B98470620224FB5
S1130A10B847244B984701AC0296657025726572FD
S1130A2004232370210001201F4B984701201F4BF2
S1130A309847267021000020134B984700201C4B38
S1130A4098470720B8470E49D022CB681340D02BD3
S1130A50FBD1184A0023137253729372D37201A903
S1130A6001224A604B700B724B7207330B700020EB
S1130A700D4B984700200D4B98470DB0F0BDC04674
S1130A800008004000400041F10C00002460800098
S1130A90FFFF80FFB1070000BD0800003908000017
S1130AA075070000B90A0000DD0A0000950B00007C
S1130AB0650C000000040040064A916908230B43BA
S1130AC093610122044B1A7019000B781342FCD174
S1130AD07047C04600040040000C004070B506009A
S1130AE005000C78240204434B78002B02D08023A9
S1130AF0DB021C434B7A002B02D080231B031C43D4
S1130B004868012818D9431E184210D1022806D972
S1130B100223002201325B009842FBD800E000224D
S1130B2012023243150080235B031C4304E00502D8
S1130B30354380239B021C430B7A002B02D0802375
S1130B409B031C430F4A53785BB2002BFBDB0E4B19
S1130B5098470E4B1E700B4A53785BB2002BFBDB9D
S1130B60084B9D601A0053785BB2002BFBDB054AEF
S1130B70516880235B020B401C435460044B98472C
S1130B8070BDC046000C004019060000080C00406F
S1130B905906000010B504000B4A53785BB2002BD1
S1130BA0FBDB0A4B98470A4B1C70074A53785BB22D
S1130BB0002BFBDB044A5368802149020B4353603A
S1130BC0044B984710BDC046000C004019060000B5
S1130BD0040C00405906000070B504001A4A53780A
S1130BE05BB2002BFBDB194B9847194B1C70164A60
S1130BF053785BB2002BFBDB134E7068C004C00E4D
S1130C00144B98470500124B1C707668F602F60FD9
S1130C10114B1C700C4A53785BB2002BFBDB0A4B64
S1130C209C682402240C0D4B9847002E07D1012CFC
S1130C3007D9210028000A4B9847050001E0013438
S1130C40E540280070BDC046000C004019060000B5
S1130C50040C0040E5060000080C004059060000A2
S1130C609511000010B50400064B9847064B1C7004
S1130C70064A51888023DB010B435380044B984779
S1130C8010BDC04619060000020C0040000C0040D4
S1130C905906000010B504000F4B98470F4B1C7009
S1130CA00F4B5A881205100F59880E4A0A405A8071
S1130CB059880D4A0A405A8019008022D2014B8873
S1130CC01342FCD106494C880202064B23401343CD
S1130CD04B80064B984710BD19060000020C0040DB
S1130CE0000C0040FFF0FFFFFFBFFFFF59060000AC
S1130CF010B50C7824020443024B9847A4B2024B6B
S1130D005C8010BD950C0000000C004010B5040080
S1130D10064B9847064B1C70064B5C882405240F31
S1130D20054B98472000054B984710BD1906000055
S1130D30020C0040000C004059060000D90B0000D2
S1130D4030B5D378002B1ED11378802B04D01B062A
S1130D5080246402234300E0002354780225AC433A
S1130D600AD19478002C03D18024A402234302E006
S1130D70C024E402234341605478013C012C12D87E
S1130D80184C23400FE041600B041B0CA024E40525
S1130D90234383620B0CD024240623438362D37839
S1130DA0002B18D01CE00C04240CA025ED052C43CA
S1130DB01C4384620C0CD0252D062C431C438462F6
S1130DC0D478002C0CD15B0305D59378012B01D189
S1130DD0816100E041615378013B012B00D88160BF
S1130DE030BDC046FFFFFBFF10B503000A00C10978
S1130DF00020002904D15809C00105498C466044EB
S1130E001F210B401E399940024B984710BDC04624
S1130E1000440041410D00007047C04610B5054B29
S1130E209847054B9847054B9847054B9847054B02
S1130E30984710BD6509000089060000190E0000DE
S1130E40190E0000190E000070B58000144BC5582F
S1130E502B689C7B2B7E1C406B7E1C40E30705D5D6
S1130E602800AB68984701232A689373A30705D524
S1130E702800EB68984702232A689373E30605D594
S1130E8028002B69984710232A689373A30605D575
S1130E9028006B6998472B6820229A7370BDC0465E
S1130EA05800002010B50020014B984710BDC046E3
S1130EB0490E000010B50120014B984710BDC046F3
S1130EC0490E0000FEE7C04610B52B4B2B4A9A4250
S1130ED003D02B4B284A9A4204D32A4B2A4A9A42DB
S1130EE010D31EE0294A264B03339B1A9B08013377
S1130EF09B000022204821498C58845004329A4295
S1130F00FAD1EAE7224A1F4B03339B1A9B080133A9
S1130F109B0000221C4800211418216004329A42CC
S1130F20FAD11C4AFF211C4B8B439360FD3990235B
S1130F305B001A4AD1501A4B9A7B2E318A43110016
S1130F4020220A439A739A7B0C218A4311000822B7
S1130F500A439A739A7B03218A43110002220A43AB
S1130F609A73104A516880230B4353600E4B984781
S1130F700E4B9847FEE7C046000000209C1300007B
S1130F800C000020700000200C0000200400002051
S1130F901000002000ED00E000000000007000419F
S1130FA00048004100400041AD120000591100000A
S1130FB00A4B1B6801211A7E0A42FCD01A7ED20712
S1130FC001D5020A9A6201211A7E0A42FCD01A7ED5
S1130FD0D20702D5C005C00D98627047600000209A
S1130FE070B50400054E03115B00985B044DA847DF
S1130FF00F231C406400A05BA84770BD5C13000075
S1131000B10F0000F0B55F4656464D464446F0B475
S113101083B083468A4691460C239846174E002097
S1131020174B98470020164B984745460C2D13DC68
S1131030AC00E043C01720405B46434301934F4656
S1131040474352465043B0470198B0473800B04731
S1131050013504340D2DECD132200A4B984701237D
S11310605B429C46E04443461833D8D103B03CBCB1
S113107090469946A246AB46F0BDC046E10F00003B
S1131080B10F00002D01000030B591B0274C1123A1
S1131090237000236370A37001A901224A708B702E
S11310A00A701120224B98472378DA090021002A7C
S11310B004D15909C9011F4A944661441F221340AF
S11310C01E3A10009840886102AC227000230393FA
S11310D023746374A274E27423752332A354183AFC
S11310E0002108A8144B984780235B05A360802344
S11310F09B03E360114BA362114BE362114B236327
S113110001235B426363104BA361104D220010491D
S11311102800104B98472A68D369002BFCD111682A
S113112002330B43136011B030BDC0466C00002085
S1131130C106000000440041F9120000020016003C
S11311400200170002001800A025260060000020FD
S1131150000C0042F902000010B50A4B98470A4BF4
S113116098470A4B98470A4C002200210120A047C7
S1131170002201210020A047012200210020A047D5
S1131180F2E7C0461D0E0000ED00000089100000CB
S113119005100000002243088B4274D303098B42DC
S11311A05FD3030A8B4244D3030B8B4228D3030C33
S11311B08B420DD3FF22090212BA030C8B4202D3D5
S11311C01212090265D0030B8B4219D300E0090AFD
S11311D0C30B8B4201D3CB03C01A5241830B8B4206
S11311E001D38B03C01A5241430B8B4201D34B03EF
S11311F0C01A5241030B8B4201D30B03C01A524154
S1131200C30A8B4201D3CB02C01A5241830A8B42D8
S113121001D38B02C01A5241430A8B4201D34B02C1
S1131220C01A5241030A8B4201D30B02C01A524125
S1131230CDD2C3098B4201D3CB01C01A52418309D9
S11312408B4201D38B01C01A524143098B4201D313
S11312504B01C01A524103098B4201D30B01C01A3E
S11312605241C3088B4201D3CB00C01A52418308B8
S11312708B4201D38B00C01A524143088B4201D3E5
S11312804B00C01A5241411A00D201465241104645
S11312907047FFE701B5002000F006F802BDC04624
S11312A00029F7D076E770477047C0460E4B70B5FB
S11312B000251E000D4CE41AA410A54204D0AB0076
S11312C0F35898470135F8E700F058F8084B002523
S11312D01E00084CE41AA410A54204D0AB00F35835
S11312E098470135F8E770BD8813000088130000A3
S11312F0881300008C13000003008218934202D06C
S113130019700133FAE7704700080042000C0042EC
S113131000100042F6060000F2060000F20600008B
S113132050070000500700000A070000FC060000F8
S1131330100700003E070000E8080000C80800008D
S1131340C808000054090000DA080000F60800008C
S1131350CC080000040900004409000024092609FF
S113136034093609A409A609B409B609240D260DC1
S1131370340D360DA40DA60DB40DB60DF8B5C0464A
S1131380F8BC08BC9E467047B5000000F8B5C046DE
S10F1390F8BC08BC9E4670478D000000AD
S10F139C08000000401F000001000000D9
S9030EC925
